:100000000C94660C0C94970C0C94970C0C94970C15
:100010000C94970C0C94970C0C94970C0C94970CD4
:100020000C94970C0C94970C0C94970C0C94970CC4
:100030000C94970C0C94970C0C94970C0C94970CB4
:100040000C94970C0C9473370C94970C0C94970C9D
:100050000C94970C0C94970C0C9433190C946E3FE1
:100060000C94970C0C94D2180C9400190C94970CC7
:100070000C94970C0C94970C0C94970C0C94970C74
:100080000C94970C0C94970C0C94970C0C94970C64
:100090000C94970C0C94970C0C94970C0C94970C54
:1000A0000C94970C0C94970C0C94970C0C94970C44
:1000B0000C94970C0C94970C0C94970C0C94970C34
:1000C0000C94970C0C94970C0C94970C0C94970C24
:1000D0000C94970C0C94970C0C94970C0C94970C14
:1000E0000C94970CD759D95ADE5AE85AF25A6B5BDE
:1000F000FC5A045B0C5B165B205B2A5B395B435B41
:100100006B5B4D5B575B615B373E3A3E293E2D3E54
:10011000333E713E3E3E423E483E4C3E503E563E91
:100120005A3E5E3E713E643E683E6C3E084AD73B96
:100130003BCE016E84BCBFFDC12F3D6C74319ABDB6
:1001400056833DDA3D00C77F11BED9E4BB4C3E91DA
:100150006BAAAABE000000803F05A84CCDB2D44EC9
:10016000B93836A9020C50B9918688083CA6AAAACB
:100170002ABE000000803F004E414E494E4954596E
:10018000494E46CDCCCC3D0AD7233C17B7D1387762
:10019000CC2B329595E6241FB14F0A000020410078
:1001A00000C84200401C4620BCBE4CCA1B0E5AAEC2
:1001B000C59D74434F4D4D554E49434154494F4E93
:1001C0000044525952554E004552524F5253004925
:1001D0004E464F004543484F0047322F4733206279
:1001E000616420706172616D65746572730A0045A7
:1001F00072726F723A0020453A00205A3A00205934
:100200003A003C2D583A0020530053617665642033
:10021000706F736974696F6E00496E76616C6964A2
:1002200020736C6F742C20746F74616C20736C6F0E
:1002300074733A20004572726F723A003A002000DF
:100240002D3E00205300496E76616C696420736C0A
:100250006F742C20746F74616C20736C6F74733ABC
:1002600020004572726F723A00526573746F726942
:100270006E6720706F736974696F6E005072696E7B
:10028000742074696D6520004563686F3A00507290
:100290006F7465637465642050696E0A0000000A1B
:1002A0000B02090C0D0E08070304010000000000FA
:1002B000000000000000000000000000000000003E
:1002C00000000000000000000012111000000000FB
:1002D000000000000000000000000000000000001E
:1002E0000000004572726F723A0046696C616D657C
:1002F0006E7420757365643A200025754B6D20255A
:10030000756D202575636D2025756D6D00537461C5
:1003100074733A20002C20506F776572206F6E2026
:1003200074696D653A2000546F74616C2070726955
:100330006E742074696D653A200053746174733A69
:1003400020002C204661696C65643A20002C204610
:10035000696E69736865643A2000546F74616C3A21
:10036000200053746174733A20006F6B003F0A00E1
:1003700020573A00D401CF01C801C101B3016F6613
:10038000660044454255473A004563686F3A004B62
:10039000494C4C45442E20004649524D5741524548
:1003A0005F4E414D453A4D4B3464756F20342E33CA
:1003B0002E32204649524D574152455F55524C3AD4
:1003C0006D61726C696E6B696D6272612E69742009
:1003D00050524F544F434F4C5F56455253494F4E26
:1003E0003A322E30204D414348494E455F545950D2
:1003F000453A43617274657369616E204558545281
:10040000554445525F434F554E543A312055554956
:10041000443A30303030303030302D303030302DC4
:10042000303030302D303030302D303030303030D2
:100430003030303030300A0A004563686F3A007A55
:100440005F6D696E3A2000795F6D696E3A200078C1
:100450005F6D696E3A20005265706F7274696E67E5
:1004600020656E6473746F70207374617475730AA1
:1004700000205A00205900580020204D61783A0091
:10048000205A00205900580020204D696E3A004F34
:100490006E20004F666600536F667420656E64734D
:1004A000746F70733A20004563686F3A0053657447
:1004B00074696E672054726176656C206163636550
:1004C0006C65726174696F6E3A200053657474696B
:1004D0006E67205265747261637420616363656C3A
:1004E00065726174696F6E3A200053657474696E49
:1004F00067205072696E7420616363656C65726118
:1005000074696F6E3A200053657474696E67205089
:1005100072696E7420616E642054726176656C201D
:10052000616363656C65726174696F6E3A2000493E
:100530006E76616C69642065787472756465720AA0
:100540000020443A0020493A0020503A0048004533
:1005500063686F3A004572726F723A0043290A006D
:1005600061626C656420286D696E2074656D702011
:1005700000436F6C642065787472756465732061E4
:1005800072652000454550524F4D20646973616289
:100590006C65640A004572726F723A00202D204D1E
:1005A00061784C617965723A0053746172742050BD
:1005B00072696E74696E670053746F70205072694F
:1005C0006E74696E670A00416374697665204578C8
:1005D0007472756465723A20004563686F3A004131
:1005E0006374697665204472697665723A200045C5
:1005F00063686F3A0020496E76616C6964206578A3
:100600007472756465720A0054004572726F723AB2
:1006100000556E6B6E6F776E20636F6D6D616E64EB
:100620003A2022004563686F3A004563686F3A00DC
:10063000205A3A0020593A0020583A00656E6473F7
:10064000746F7073206869743A20004563686F3A6C
:10065000002569730025696D202569730025696887
:100660002025696D20256973002569642025696846
:100670002025696D20256973002569792025696425
:10068000202569682025696D2025697300656E71D4
:1006900075657565696E672022004563686F3A006D
:1006A0004572726F723A004E6F204C696E65204E33
:1006B000756D626572207769746820636865636B25
:1006C00073756D2C204C617374204C696E653A20F3
:1006D000004B494C4C45442E20005072696E7465A5
:1006E000722073746F707065642064756520746F18
:1006F000206572726F72732E204669782074686567
:10070000206572726F7220616E6420757365204D72
:1007100039393920746F20726573746172742E20B8
:100720002854656D706572617475726520697320F7
:1007300072657365742E2053657420697420616638
:100740007465722072657374617274696E67290AC8
:10075000004572726F723A004E6F20436865636B9A
:1007600073756D2077697468206C696E65206E758D
:100770006D6265722C204C617374204C696E653A11
:100780002000636865636B73756D206D69736D61BF
:100790007463682C204C617374204C696E653A2038
:1007A000004C696E65204E756D626572206973201C
:1007B0006E6F74204C617374204C696E65204E75A9
:1007C0006D6265722B312C204C617374204C696E04
:1007D000653A20004D313130007761697400204066
:1007E0003A00202F0020543A00204B643A20002089
:1007F0004B693A2000204B703A2000504944204178
:1008000075746F74756E652066696E69736865646A
:10081000212050757420746865206C617374204BBE
:10082000702C204B6920616E64204B6420636F6ED6
:100830007374616E74732066726F6D2061626F767F
:100840006520696E746F20436F6E666967757261AB
:1008500074696F6E2E68206F722073656E642063FA
:100860006F6D6D616E64204D35303020666F722083
:100870007361766520696E20454550524F4D207456
:100880006865206E65772076616C7565210A005079
:100890004944204175746F74756E65206661696C9A
:1008A0006564212074696D656F75740A0050494450
:1008B000204175746F74756E65206661696C65643E
:1008C000212054656D706572617475726520746F56
:1008D0006F20686967680A004572726F723A00207B
:1008E0004B643A2000204B693A2000204B703A209C
:1008F0000020436C617373696320504944200A00EF
:100900002054753A2000204B753A2000206D617804
:100910003A2000206D696E3A200020643A200020C1
:10092000626961733A2000204170706C79207265B1
:1009300073756C740A00204379636C65733A200008
:100940002054656D703A2000486F74656E643A20DB
:1009500000504944204175746F74756E652066615E
:10096000696C656421204261642074656D706572F4
:10097000617475726520636F6E74726F6C6C6572F2
:10098000206E756D6265720A004572726F723A0070
:10099000504944204175746F74756E65207374619D
:1009A00072740A00526573656E643A006F6B0020C2
:1009B0005A3A0020593A0020436F756E7420583A15
:1009C0000020453A00205A3A0020593A00583A008F
:1009D0004B494C4C45442E20004B494C4C20636104
:1009E0007573656420627920746F6F206D7563681C
:1009F00020696E6163746976652074696D65202D68
:100A00002063757272656E7420636F6D6D616E64C4
:100A10003A20004572726F723A005072696E7465C6
:100A2000722068616C7465642E206B696C6C282977
:100A30002063616C6C6564210A004572726F723AC2
:100A400000536F6674776172652052657365740A2E
:100A5000005761746368646F672052657365740A38
:100A60000042726F776E206F7574205265736574E3
:100A70000A0045787465726E616C20526573657406
:100A80000A00506F77657255700A0020506C616ED5
:100A90006E657242756666657242797465733A2056
:100AA0000046726565204D656D6F72793A2000458C
:100AB00063686F3A00436F6D70696C65643A2044F7
:100AC000656320313020323031370A004563686F6A
:100AD0003A004C61737420557064617465643A2007
:100AE00044656320313020323031372030323A33A0
:100AF000303A3336207C20417574686F723A202872
:100B00006E6F6E652C2064656661756C7420636F12
:100B10006E666967290A004563686F3A004D4B3479
:100B200064756F5F342E332E320A004563686F3A66
:100B300000496E666F3A00737461727400000000C1
:100B40000000000000000000005761726E696E67CF
:100B50003A20486F6D696E672042756D7020446958
:100B60007669736F72203C20310A004572726F7291
:100B70003A000000A0400000A0400000004000003B
:100B800048430000484300004843FFFFFF4572729E
:100B90003A204D415854454D50004D415854454D13
:100BA0005020747269676765726564004572723AB5
:100BB000204D494E54454D50004D494E54454D50E1
:100BC00020747269676765726564000D48617264BC
:100BD000636F6465642044656661756C7420536559
:100BE0007474696E6773204C6F616465640A0045B4
:100BF00063686F3A0020204D32303020543020445A
:100C000000436F6E6669673A002044697361626CE5
:100C100065640A0046696C616D656E742073657465
:100C200074696E67733A00436F6E6669673A0020B5
:100C3000440020490020500020204D33303120480E
:100C40003000436F6E6669673A005049442073650F
:100C50007474696E67733A0A00436F6E6669673A27
:100C600000205430204500205A0020590020580010
:100C700020420020560020204D32303520530043C2
:100C80006F6E6669673A00416476616E63656420E1
:100C90007661726961626C65733A20533C6D696E6E
:100CA0005F66656564726174653E20563C6D696E71
:100CB0005F74726176656C5F6665656472617465A8
:100CC0003E20423C6D696E5F7365676D656E745F53
:100CD00074696D655F6D733E20583C6D61785F7817
:100CE000795F6A65726B3E205A3C6D61785F7A5F0E
:100CF0006A65726B3E20542A20453C6D61785F65C1
:100D00005F6A65726B3E0A00436F6E6669673A0000
:100D100020543020520020560020204D3230342004
:100D20005000436F6E6669673A00416363656C65A6
:100D3000726174696F6E2028756E6974732F7332D7
:100D4000293A20503C7072696E745F616363656C10
:100D50003E20563C74726176656C5F616363656CBE
:100D60003E20542A20523C726574726163745F6144
:100D70006363656C3E0A00436F6E6669673A0020E4
:100D80005430204500205A0020590020204D323098
:100D900031205800436F6E6669673A004D6178698B
:100DA0006D756D20416363656C65726174696F6E0A
:100DB0002028756E6974732F7332293A0A00436FC5
:100DC0006E6669673A00205430204500205A0020A2
:100DD000590020204D323033205800436F6E666931
:100DE000673A004D6178696D756D2066656564725E
:100DF000617465732028756E6974732F73293A0ABC
:100E000000436F6E6669673A002054302045002029
:100E10005A0020590020204D3932205800436F6E6F
:100E20006669673A00537465707320706572207547
:100E30006E69743A0A00436F6E6669673A00202053
:100E4000473231203B20556E69747320696E206DE6
:100E50006D0A00436F6E6669673A00636F6C6420C9
:100E6000657874727573696F6E2070726576656EE1
:100E70007465640A004572726F723A00537465704B
:100E80007261746520746F6F20686967683A20002A
:100E900024F4D43050C38E20C2A24017828B70112C
:100EA000127A910D816CD90AA861E108C7586607CA
:100EB000615143061E4B5D05C145A7041A4111044B
:100EC000093D9803713931034036DB0265339102E5
:100ED000D4305402802E1D02632CEE01752AC50108
:100EE000B028A001102781018F2564012B244B011C
:100EF000E0223401AC211F018D200D01801FFC0078
:100F0000841EED00971DDF00B81CD200E61BC60052
:100F1000201BBC00641AB200B219A8000A19A00074
:100F20006A189900D117910040178B00B5168400FC
:100F300031167E00B31579003A157300C7146F009F
:100F400058146A00EE1366008813630025135E00D0
:100F5000C7125B006C12570015125400C1115100EA
:100F600070114F0021114B00D61049008D10470021
:100F70004610440002104200C00F4000800F3E00A7
:100F8000420F3C00060F3B00CB0E3800930E37009B
:100F90005C0E3500270E3400F30D3200C10D310018
:100FA000900D3000600D2E00320D2D00050D2C002F
:100FB000D90C2B00AE0C2900850C29005C0C2700F5
:100FC000350C27000E0C2600E80B2400C40B24006F
:100FD000A00B23007D0B23005A0B2100390B2100AD
:100FE000180B2000F80A1F00D90A1E00BB0A1E00B9
:100FF0009D0A1D00800A1D00630A1C00470A1B0091
:101000002C0A1B00110A1A00F7091A00DD09190041
:10101000C4091900AB091900920917007B091800CF
:10102000630917004C09160036091600200916003E
:101030000A091500F5081500E0081400CC08140092
:10104000B8081400A4081400900813007D081200CA
:101050006B081300580812004608120034081100EB
:10106000230811001208110001081100F0071000F8
:10107000E0071000D0071000C0071000B0070F00F5
:10108000A107100091070E0083070F0074070F00DF
:1010900065070E0057070E0049070E003B070D00BD
:1010A0002E070E0020070D0013070D0006070D0088
:1010B000F9060C00ED060D00E0060C00D4060C004D
:1010C000C8060C00BC060C00B0060C00A4060B0001
:1010D00099060C008D060B0082060B0077060B00AC
:1010E0006C060B0061060A0057060B004C060A004E
:1010F00042060A0038060A002E060A0024060A00E4
:101100001A060A001006090007060A00FD05090074
:10111000F4050900EB050900E2050900D9050900FD
:10112000D0050900C7050900BE050900B50508007E
:10113000AD050800A50509009C05080094050800F8
:101140008C050800840508007C050800740508006B
:101150006C050700650508005D05070056050800D9
:101160004E05070047050700400508003805070041
:10117000310507002A050700230507001C050600A6
:10118000160507000F050700080506000205070001
:10119000FB040600F5040700EE040600E804060060
:1011A000E2040700DB040600D5040600CF040600B5
:1011B000C9040600C3040600BD040600B704060007
:1011C000B1040500AC040600A6040600A004050056
:1011D0009B04060095040500900406008A0405009F
:1011E00085040500800406007A04050075040500E6
:1011F000700405006B040500660405006104050029
:101200005C04050057040500520405004D04050068
:1012100048040500430405003E0404003A040500A8
:1012200035040500300404002C04050027040400E4
:10123000230405001E0404001A040400160405001B
:10124000110404000D040400090405000404040052
:1012500000040400FC030400F8030400F403040089
:10126000F0030400EC030400E8030400E4030400BA
:10127000E0030400DC030400D8030400D4030400EA
:10128000D0030400CC030400C8030300C50303001B
:1012900024F404D9201BC40C5C0E9804C4095F021A
:1012A00065077101F405F900FB04B30048048700E9
:1012B000C10369005803550003034500BE023A000C
:1012C0008402310053022A00290225000402200072
:1012D000E4011C00C8011900AF01170098011400B7
:1012E00084011300710110006101100051010E0012
:1012F00043010D0036010B002B010B0020010B00F8
:10130000150109000C01090003010800FB00080099
:10131000F3000800EB000700E4000600DE00060012
:10132000D8000600D2000600CC000500C70005006A
:10133000C2000500BD000400B9000400B5000400AF
:10134000B1000400AD000400A9000400A5000300E2
:10135000A20003009F0004009B000300980003000C
:101360009500020093000300900003008D0002002E
:101370008B00030088000200860002008400030046
:10138000810002007F0002007D0002007B0002005D
:10139000790002007700010076000200740002006C
:1013A00072000100710002006F0002006D00010078
:1013B0006C0002006A000100690002006700010081
:1013C0006600010065000100640002006200010087
:1013D00061000100600001005F0002005D0001008B
:1013E0005C0001005B0001005A000100590001008F
:1013F000580001005700010056000100550001008F
:10140000540001005300000053000100520001008D
:1014100051000100500001004F0001004E0000008B
:101420004E0001004D0001004C0001004B00000087
:101430004B0001004A000100490001004800000083
:10144000480001004700010046000000460001007E
:101450004500000045000100440001004300000079
:101460004300010042000000420001004100000072
:1014700041000100400001003F0000003F0001006A
:101480003E0000003E0001003D0000003D00010064
:101490003C0000003C0000003C0001003B0000005C
:1014A0003B0001003A0000003A0001003900000052
:1014B0003900010038000000380000003800010049
:1014C0003700000037000100360000003600000041
:1014D0003600010035000000350000003500010035
:1014E000340000003400000034000100330000002C
:1014F0003300000033000100320000003200000021
:101500003200010031000000310000003100010014
:101510003000000030000000300001002F0000000B
:101520002F0000002F0000002F0001002E000000FF
:101530002E0000002E0001002D0000002D000000F4
:101540002D0000002D0001002C0000002C000000E8
:101550002C0000002C0001002B0000002B000000DC
:101560002B0000002B0001002A0000002A000000D0
:101570002A0000002A0001002900000029000000C4
:1015800029000000290000002900010028000000B7
:1015900028000000280000002800000028000100AA
:1015A000270000002700000027000000270000009F
:1015B0002700010026000000260000002600000091
:1015C0002600000026000100250000002500000084
:1015D0002500000025000000250000002500010076
:1015E000240000002400000024000000240000006B
:1015F000240001002300000023000000230000005D
:10160000230000002300000023000000230001004D
:101610002200000022000000220000002200000042
:101620002200000022000100210000002100000033
:101630002100000021000000210000002100000026
:101640002100010020000000200000002000000018
:10165000200000002000000020000000200000000A
:10166000200001001F0000001F0000001F000000FC
:101670001F0000001F0000001F0000001F000100ED
:101680001E0000001E0000001E0000001E000000E2
:101690004D383420582059205A20450017002C017D
:1016A000190027011B0022011C001D011F00180149
:1016B0002100130123000E01260009012900040165
:1016C0002C00FF003000FA003400F5003800F00074
:1016D0003D00EB004200E6004700E1004E00DC0068
:1016E0005400D7005C00D2006400CD006D00C8003B
:1016F0007800C3008300BE008F00B9009C00B400D6
:10170000AB00AF00BB00AA00CD00A500E000A00028
:10171000F5009B000C0196002501910040018C0012
:101720005C0187007B0182009B017D00BD01780088
:10173000E001730004026E00290269004F02640098
:1017400074025F0099025A00BE025500E102500087
:1017500002034B00210346003E03410059033C00B5
:1017600071033700870332009A032D00AB03280072
:10177000BA032300C6031E00D1031900D9031400C5
:10178000E1030F00E7030A00EC030500F00300008B
:10179000F403FBFFF803F6FFFC03F1FF4B494C4C4D
:1017A00045442E2000202D20496E76616C6964200E
:1017B0006578747275646572206E756D62657220ED
:1017C000210A004572726F723A0000002100240065
:1017D00027002A002D003000330001010000040121
:1017E00007010A0100002200250028002B002E001E
:1017F0003100340002010000050108010B01000066
:1018000020002300260029002C002F0032000001B8
:101810000000030106010901050505050705080883
:101820000808020202020A0A08080404040401016A
:10183000010101010101030303030303030304077F
:1018400007070C0C0C0C0C0C0C0C02020202060616
:101850000606060606060B0B0B0B0B0B0B0B010209
:1018600010202008081020401020408002010201B2
:10187000080402010102040810204080804020106A
:1018800008040201800402018040201008040201C3
:10189000080402010102040810204080010204082B
:1018A000102040802C2073797374656D2073746FE1
:1018B0007070656421204865617465725F49443ABF
:1018C00020004572726F723A0000DF5D11241FBE66
:1018D000CFEFD1E2DEBFCDBF00E00CBF2CE0AEE326
:1018E000B3E001C01D92AE3DB207E1F713E0A0E006
:1018F000B2E0E4E5F5ED00E00BBF02C007900D9209
:10190000AE33B107D9F71CE0C6E6DCE000E006C064
:1019100021970109802FFE010E944969C536D10730
:1019200080E00807A9F70E94AF440C94A86A0C94C1
:101930000000AF92CF92EF92FF920F931F93A0906F
:10194000FE03C09000047B018C012EE433E04AE4E6
:1019500053E066E473E082E493E00E948A291F91D9
:101960000F91FF90EF90CF90AF900895FF920F935B
:101970001F93CF93DF93FC0120812B3319F1D0917A
:10198000A905D430F8F4F62EBC01C091EE050C2F59
:1019900010E0F0E6CF9FC0011124855F9B4F0E94AD
:1019A000926AF801E959F94FF082CF5FC43018F418
:1019B000C093EE0502C01092EE05DF5FD093A9053B
:1019C00081E001C080E0DF91CF911F910F91FF90E6
:1019D00008954F925F926F927F928F929F92AF92F3
:1019E000BF92CF92DF92EF92FF92CF93DF93C0909E
:1019F0006203D0906303E0906403F0906503EDEC24
:101A0000F9E08491EF012196882321F00E94D920EA
:101A1000FE01F7CF42E0C701B6010E941123C0903A
:101A20006603D0906703E0906803F0906903E9ECE7
:101A3000F9E08491EF012196882321F00E94D920BA
:101A4000FE01F7CF42E0C701B6010E941123C0900A
:101A50006A03D0906B03E0906C03F0906D03E5ECAB
:101A6000F9E08491EF012196882321F00E94D9208A
:101A7000FE01F7CF42E0C701B6010E941123C090DA
:101A80006E03D0906F03E0907003F0907103E1EC6F
:101A9000F9E08491EF012196882321F00E94D9205A
:101AA000FE01F7CF42E0C701B6010E9411238FB7B4
:101AB000F8944090520350905303609054037090F8
:101AC00055038090560390905703A0905803B09010
:101AD0005903C0905A03D0905B03E0905C03F090F0
:101AE0005D038FBFE7EBF9E08491EF012196882336
:101AF00021F00E94D920FE01F7CFC301B2010E945C
:101B0000F722E3EBF9E08491EF012196882321F09D
:101B10000E94D920FE01F7CFC501B4010E94F7222F
:101B2000EFEAF9E08491EF012196882321F00E94E9
:101B3000D920FE01F7CFC701B6010E94F7228AE043
:101B4000DF91CF91FF90EF90DF90CF90BF90AF905B
:101B50009F908F907F906F905F904F900C94D920C2
:101B6000CF92DF92EF92FF920F931F93CF93DF9369
:101B7000C0909B03D0909C03E0909D03F0909E0347
:101B8000E5EEF7E08491EF012196882321F00E9491
:101B9000D920FE01F7CF41E0C701B6010E94112311
:101BA00000919F031091A003E2EEF7E08491EF0112
:101BB0002196882321F00E94D920FE01F7CFB80199
:101BC000110F880B990B0E94F722E0915A06F0E062
:101BD000E55AF34F1081EEEDF7E08491EF01219685
:101BE000882321F00E94D920FE01F7CF612F70E0F9
:101BF00080E090E0DF91CF911F910F91FF90EF90E7
:101C0000DF90CF900C94F72280E1E2E4F3E0A2E6CB
:101C1000B3E001900D928A95E1F70895AF92CF92CB
:101C2000EF92FF920F931F93E0900002F090010259
:101C30000091020210910302A090FE03C0900004E4
:101C40002EE633E04AE653E066E673E082E693E090
:101C50000E948A291F910F91FF90EF90CF90AF9033
:101C60000895682F880F770B8091060490910704E0
:101C70000E947E6A9C019093D4038093D30381E0F9
:101C8000232B09F480E008958091D3039091D4032D
:101C90004AE050E060E070E001960E94805F97FDAE
:101CA0001EC08091D3039091D4034AE050E060E0DD
:101CB00070E001960E94805F6F3F7105810591057C
:101CC00009F07CF48091D3039091D4034AE050E072
:101CD00060E070E001960E94805F862F089580E0AA
:101CE00008958FEF0895E091D303F091D40381819B
:101CF00021E030E0803239F42F5F3F4FDF01A20F47
:101D0000B31F8C91F7CF8D3211F08B3231F42F5FEE
:101D10003F4FDF01A20FB31F8C918E3219F4E20FF7
:101D2000F31F818180538A3030F4AEDF91E081115E
:101D300003C090E001C091E0892F08958091D30302
:101D40009091D4034AE050E060E070E001960E9478
:101D5000A860CB0108958091D3039091D4034AE009
:101D600050E060E070E001960E94805FCB01089532
:101D70002F923F924F925F926F927F928F929F929B
:101D8000AF92BF92CF92DF92EF92FF920F931F9389
:101D9000CF93DF93CDB7DEB7AF970FB6F894DEBF22
:101DA0000FBECDBF88E45DDF882319F0D4DF7C014E
:101DB00002C0E12CF12C83E454DF882321F0CBDF37
:101DC0009E838D8304C025E030E03E832D8385E52E
:101DD00048DF898F882311F086DF898F83E541DF13
:101DE000882319F0B8DF8C0104C0F7FC08C008ECA8
:101DF00010E0E114F10429F410925A0602C006E43E
:101E000010E00E94623F4B015C014D815E814530D4
:101E1000510544F0453151054CF0A4E1B0E0BE83DA
:101E2000AD8304C085E090E09E838D83EF28C9F0E8
:101E3000E9E8F9E084918F010F5F1F4F882321F0BB
:101E40000E94D920F801F6CFE1E5F9E084918F01F5
:101E50000F5F1F4F882309F4CBC30E94D920F801DC
:101E6000F5CFE0E9F9E084917F01BFEFEB1AFB0ABF
:101E7000882321F00E94D920F701F5CFE8E4F9E0AA
:101E800084917F012FEFE21AF20A882321F00E9449
:101E9000D920F701F5CF60E070E0CB010E94F72276
:101EA000E0E4F9E084917F013FEFE31AF30A88232D
:101EB00021F00E94D920F701F5CFB801110F880B4E
:101EC000990B0E945A626D877E878F87988B42E0BC
:101ED0000E941123E6E3F9E084918F010F5F1F4F09
:101EE000882321F00E94D920F801F6CF4D815E8130
:101EF000BA01550F880B990B0E94F722598D552373
:101F000061F0E7E2F9E084918F010F5F1F4F8823B2
:101F100039F00E94D920F801F6CF8AE00E94D9203A
:101F20000E9457408FEF80935B0C81E080931A02F0
:101F30008EA29FA2A8A6B9A68AA69BA6ACA6BDA65D
:101F40001B8A1C8A80EA8EA791E49FA71D8A1E8A9D
:101F5000A0EAAF8BB1E4B88F1E8E1F8E18A219A213
:101F60001A8E1B8E1C8E1D8EC12CD12C76012FE754
:101F700030E040E050E029833A834B835C835FE7A5
:101F8000452E512C612C712C1AA21BA21CA21DA241
:101F900011E01A8A198A80911A02882309F489C1EA
:101FA0000E946A400E94623F6F83788789879A8780
:101FB00030909B0320909C0330919D033B87409180
:101FC0009E034C87232D322D4B855C856D897E8940
:101FD0008F89988D0E94546287FF06C03D8A2E8AA1
:101FE0005B855F8B8C85888F232D322D4B855C859F
:101FF0006B897C898EA59FA50E947B68181634F496
:102000003B8A2C8A9B859EA7AC85AFA72D853E85F4
:102010004F855889632D722D8B859C85112381F105
:102020000E947B6818160CF043C08F819885A985A3
:10203000BA8588199909AA09BB09AC01BD01445C9C
:1020400059406109710977FD33C0242DE9812E1BA8
:1020500020935B0C8AA39BA3ACA3BDA3FD85FD8B42
:102060002E852E8B3F853F8B4889488F8F819885A1
:10207000A985BA858EA39FA3A8A7B9A710E018C009
:102080000E94546287FF14C08F819885A985BA8504
:102090002EA13FA148A559A5821B930BA40BB50BFC
:1020A000AC01BD01485853416109710977FF1BC15B
:1020B00020E030E040E252E46D857E858F8598898E
:1020C0000E9455669B01AC01632D722D8B859C850A
:1020D0000E947B681816CCF4E8EDF8E084918F013B
:1020E0000F5F1F4F882321F00E94D920F801F6CFFF
:1020F000EDEAF8E084918F010F5F1F4F882309F408
:1021000077C20E94D920F801F5CF88E19CEFAFEFAC
:10211000BFEF2AA53BA54CA55DA5821B930BA40B85
:10212000B50B2F81388549855A85820F931FA41FCF
:10213000B51FB7FD0CC014DD8AE00E94D9208F8145
:102140009885A985BA858AA79BA7ACA7BDA78F81CB
:102150009885A985BA85880F991FAA1FBB1F2EA134
:102160003FA148A559A5821B930BA40BB50B881959
:102170009909AA09BB0981389F44A241B10568F0B9
:10218000EFE8F8E084918F010F5F1F4F882309F477
:102190002FC20E94D920F801F5CF49895A898D8133
:1021A0009E81841795070CF0F6CEEBEFF7E0849153
:1021B0008F010F5F1F4F882321F00E94D920F80163
:1021C000F6CFE5EFF7E084918F010F5F1F4F882373
:1021D00021F00E94D920F801F6CF42E0C701B601F4
:1021E0000E941123EFEEF7E084918F010F5F1F4FE4
:1021F000882321F00E94D920F801F6CF42E06A8DB1
:102200007B8D8C8D9D8D0E941123E9EEF7E08491EA
:102210008F010F5F1F4F882321F00E94D920F80102
:10222000F6CF42E06E8D7F8D88A199A10E94112387
:102230008AE00E94D920998D992309F4D9C1C092CE
:10224000F903D092FA03E092FB03F092FC032A8D8B
:102250003B8D4C8D5D8D2093F5033093F6034093B9
:10226000F7035093F8038E8D9F8DA8A1B9A1809399
:10227000F1039093F203A093F303B093F403AF96AA
:102280000FB6F894DEBF0FBECDBFDF91CF911F9187
:102290000F91FF90EF90DF90CF90BF90AF909F9005
:1022A0008F907F906F905F904F903F902F900C9405
:1022B000AD41AF960FB6F894DEBF0FBECDBFDF9134
:1022C000CF911F910F91FF90EF90DF90CF90BF9033
:1022D000AF909F908F907F906F905F904F903F90C6
:1022E0002F900C94574049895A89452B09F469C1AC
:1022F0008AA09BA0ACA0BDA0880E991EAA1EBB1EE2
:102300002AA13BA14CA15DA1281B390B4A0B5B0BF9
:10231000CA01B90129813A814B815C810E940A6618
:10232000A50194010E942D69D301C201820F931F60
:10233000A41FB51F84319105A105B105FCF02C0146
:102340003D018C3E9105A105B1052CF04BEE442ECC
:10235000512C612C712C40E8441651046104710425
:10236000DCF08EEF90E0A0E0B0E084199509A609BA
:10237000B70989839A83AB83BC8312C034E1432EAF
:10238000512C612C712C24E130E040E050E0298395
:102390003A834B835C8304C049825A826B827C827D
:1023A000EFE1F9E084918F010F5F1F4F882321F047
:1023B0000E94D920F801F6CFC301B2010E94F72292
:1023C000EAE1F9E084918F010F5F1F4F882321F02C
:1023D0000E94D920F801F6CF69817A818B819C8196
:1023E0000E94F722E3E1F9E084918F010F5F1F4F14
:1023F000882321F00E94D920F801F6CF42E06B89B2
:102400007C898EA59FA50E941123ECE0F9E08491C0
:102410008F010F5F1F4F882321F00E94D920F80100
:10242000F6CF42E06D897E898F89988D0E941123B5
:1024300049895A89433051050CF4C3C069817A81B6
:102440008B819C810E945A6220E030E040E850E499
:102450000E94B9626B017C012B893C894EA55FA566
:102460006D897E898F89988D0E9454662BED3FE09F
:1024700049E450E40E94B9629B01AC01C701B60176
:102480000E9431676B017C01C501B4010E945A6250
:102490002FE632E143E85AE30E94B9624B015C0146
:1024A000E6E0F9E084918F010F5F1F4F882321F050
:1024B0000E94D920F801F6CF42E0C701B6010E9480
:1024C0001123E0E0F9E084918F010F5F1F4F882313
:1024D00021F00E94D920F801F6CF42E0C501B401F5
:1024E0000E9411238AE00E94D9202AE939E949E1B2
:1024F0005FE3C701B6010E94B9626B017C019B01D9
:10250000AC010E945566A50194010E9431676A8F53
:102510007B8F8C8F9D8FA5019401C701B6010E940E
:10252000B96220E030E040E05EE30E94B9626E8F65
:102530007F8F88A399A3E1EFF8E084918F010F5F6B
:102540001F4F882321F00E94D920F801F6CFEBEE2F
:10255000F8E084918F010F5F1F4F882321F00E94C4
:10256000D920F801F6CF42E0C701B6010E9411233D
:10257000E5EEF8E084918F010F5F1F4F882321F073
:102580000E94D920F801F6CF42E06A8D7B8D8C8DB8
:102590009D8D0E941123EFEDF8E084918F010F5F74
:1025A0001F4F882321F00E94D920F801F6CF42E086
:1025B0006E8D7F8D88A199A10E9411238AE00E94CF
:1025C000D9208981840D80935B0C89899A89019631
:1025D0009A8B898B9D859B8BAE85AC8BBF85BEA767
:1025E000E889EFA78F809884A984BA8411E060CD30
:1025F000AF960FB6F894DEBF0FBECDBFDF91CF917F
:102600001F910F91FF90EF90DF90CF90BF90AF9010
:102610009F908F907F906F905F904F903F902F9002
:1026200008958091D3039091D4034AE050E060E094
:1026300070E001960C94805F0F931F93CF93DF930C
:10264000C091D303D091D40365E470E0CE010E9421
:102650007E6A8C01CE0101960115110541F460E0FE
:1026600070E0DF91CF911F910F910C941A5EF801E9
:10267000108260E070E00E941A5E25E4F801208379
:10268000DF91CF911F910F910895BF92CF92DF926A
:10269000EF92FF920F931F93CF93DF9392E4E92E73
:1026A00093E0F92E02E613E021E0C22E24E0D22EC0
:1026B000C4E5D2E0BC2E84E0B80E8991D2DA88233A
:1026C000D1F0BADFF6012081211104C02091050468
:1026D000222331F0F801208131814281538103C0EE
:1026E00020E030E0A9010E945566F7016083718304
:1026F000828393830AC0F80180819181A281B38192
:10270000F70180839183A283B383F4E0EF0EF11C81
:102710000C5F1F4F8FEFC81AD80ABC12CECF86E4C9
:10272000A0DA882349F088DF20E030E0A9010E9488
:102730007B6818160CF45FC080E593DA882381F17A
:102740007BDF6B017C01E091FF03F0E0EE0FFF1FE8
:10275000EE5EFD4F80819181BC01990F880B990B32
:102760000E945A629B01AC01C701B6010E94B96286
:1027700020E030E048EC52E40E94316720916E0383
:1027800030916F0340917003509171030E94556620
:1027900060934E0370934F038093500390935103C3
:1027A0008091080483FD37C020916E0330916F0340
:1027B000409170035091710360914E0370914F03EB
:1027C00080915003909151030E9454669B01AC018B
:1027D0006091D20C7091D30C8091D40C9091D50C57
:1027E0000E9455666093D20C7093D30C8093D40CE6
:1027F0009093D50C10C020DF20E030E040E752E499
:102800000E9431676093000270930102809302027C
:102810009093030291CFDF91CF911F910F91FF9081
:10282000EF90DF90CF90BF900895BF92CF92DF924C
:10283000EF92FF920F931F93CF93DF93CDB7DEB745
:102840006E970FB6F894DEBF0FBECDBF60912A0C15
:1028500070912B0C6115710549F14DE150E0CE01ED
:1028600001967C010E94FC611E8E6701F7018F01B9
:102870000E191F09B190BB2011F19AE0B912F7CFE0
:102880001EC082E20E94D9208AE00E94D920BB208B
:1028900009F441C00F5F1F4F80912A0C90912B0CBF
:1028A000080F191F10932B0C00932A0C81E0209124
:1028B0002A0C30912B0C232B89F580E02FC0F701D7
:1028C000E00FF11F108260E0C70150D8882371F338
:1028D000EAE9F6E084917F019FEFE91AF90A88237B
:1028E00021F00E94D920F701F5CFEDE8F6E08491C0
:1028F0007F019FEFE91AF90A882321F00E94D9206D
:10290000F701F5CFF60181916F01882309F4B9CF62
:102910000E94D920F7CF00E010E0C4CF6E960FB62A
:10292000F894DEBF0FBECDBFDF91CF911F910F9105
:10293000FF90EF90DF90CF90BF9008952EE633E0A8
:102940004AE653E066E673E082E693E00C94B54213
:1029500088E893E190932D0C80932C0C80916F006C
:102960008D7F80936F009091AE0C8091AF0C981783
:1029700019F00E946637F7CF10926507109264072E
:1029800080916F00826080936F000E94843680E0A7
:1029900090E00E94663660935B0670935C068093BD
:1029A0005D0690935E0681E090E00E94663660933B
:1029B0005F0670936006809361069093620682E0E2
:1029C00090E00E946636609363067093640680937D
:1029D0006506909366068CE0EBE5F6E0A2E6B3E0D0
:1029E00001900D928A95E1F7A9CF8F929F92AF92B5
:1029F000CF92DF92EF92FF920F931F93CF93DF93CB
:102A000000D01F92CDB7DEB779014C01880C991C1C
:102A1000880C991CC4018E599C4F6C01FC011082DA
:102A200011821282138249835A836B837C8386DFEF
:102A300049815A816B817C81F60140835183628395
:102A40007383A090FE03C090000420E030E0A90151
:102A5000B801C7010E945462811108C0F401EE550B
:102A6000FD4F308121819281838104C0302F212F3D
:102A70009E2D8F2DE32EF22E092F182F2EE633E0F8
:102A80004AE653E066E673E082E693E00E948A2914
:102A90000E9484361092A7050F900F900F900F9010
:102AA000DF91CF911F910F91FF90EF90DF90CF902A
:102AB000AF909F908F9008950E94623F60933E0375
:102AC00070933F0380934003909341030895CF9206
:102AD000DF92EF92FF9280910902882319F082E43D
:102AE00093E006D5E9DF8091080483FD39C0C090EA
:102AF0004E03D0904F03E0905003F090510320918B
:102B00006E0330916F034091700350917103C701C0
:102B1000B6010E945462882319F18091FD0381114E
:102B20001FC08091140290911502BC0180E090E0DA
:102B30000E9458629B01AC0160919B0370919C03C1
:102B400080919D0390919E030E94546287FF08C06C
:102B5000C0926E03D0926F03E0927003F092710303
:102B60002091420330914303409144035091450327
:102B70006091620370916303809164039091650397
:102B80000E94546281111DC0209146033091470379
:102B90004091480350914903609166037091670327
:102BA00080916803909169030E945462811109C069
:102BB00060910002709101028091020290910302E3
:102BC0001AC060910E0270910F02072E000C880B44
:102BD000990B0E945A6220910002309101024091AB
:102BE0000202509103020E94B9622AE037ED43E2EB
:102BF0005CE30E94B9620E94990CFF90EF90DF9015
:102C0000CF9002C8CF93DF9357DFE091A805F0E0A3
:102C1000E959F94F8081882381F0ECEAF9E0849149
:102C2000EF012196882321F00E94D920FE01F7CFE1
:102C30008AE0DF91CF910C94D920DF91CF91089554
:102C4000CF93DF938FB7F89490912807909327073D
:102C50008FBFE4EAF9E08491EF012196882321F007
:102C60000E94D920FE01F7CF8091A1039091A20389
:102C7000A091A303B091A403BC01CD016F5F7F4F6E
:102C80008F4F9F4F0E94F7228AE00E94D920DF9148
:102C9000CF91B8CFEF92FF920F931F93CF93DF9313
:102CA0001F92CDB7DEB7082F162FE0EAF6E0849129
:102CB0007F012FEFE21AF20A882331F099830E94F4
:102CC000D920F7019981F3CFE02FF92F84917F016B
:102CD0009FEFE91AF90A882321F00E94D920F70111
:102CE000F5CF6091A1037091A2038091A30390910D
:102CF000A4030E94F7228AE00E94D9201111A0DFCC
:102D000010925406109253060F90DF91CF911F91AD
:102D10000F91FF90EF9008959F92AF92BF92CF9244
:102D2000DF92EF92FF920F931F93CF93DF937DDD9E
:102D300081116CC10E94623F6B017C018091A905E9
:102D4000811146C00E941D27811142C08091560604
:102D500090915706A0915806B0915906A701960187
:102D6000281B390B4A0B5B0BDA01C901885E9340C3
:102D7000A109B109B7FD2CC0E9EDF7E08491EF019D
:102D80002196882321F00E94D920FE01F7CF8AE006
:102D90000E94D920C0925606D0925706E09258065B
:102DA000F092590615C069E373E0CE010E94896A6A
:102DB000892B09F4CDDDC0925606D0925706E092D9
:102DC0005806F092590661E083EF95E00E94B60C38
:102DD0008091A905843008F019C10E941D2788231D
:102DE00009F414C10E942727C0915306D0915406BC
:102DF0008A3019F08D3009F0E7C0109255062097FF
:102E000039F3CD50DA4F18821092540610925306BF
:102E100023EF35E0E90188812F5F3F4F8032D1F306
:102E20008E018E3411F000E010E06AE270E0CE0115
:102E30000E947E6A5C010115110509F473C064EDFE
:102E400077E0CE010E940B6299249394892B11F4B0
:102E5000912C09C06EE470E0CE0104960E947E6A57
:102E6000009709F08C014AE050E060E070E0C80192
:102E700001960E94805F6093EF057093F005809348
:102E8000F1059093F2050091A1031091A203209106
:102E9000A3033091A4030F5F1F4F2F4F3F4F6017C5
:102EA00071078207930731F0911004C061E081EA55
:102EB00097E03DC0A114B10401F180E010E0FE01F3
:102EC000E80FF11D90819A3219F08F5F1927F7CF23
:102ED0004AE050E060E070E0C50101960E94805F2A
:102EE000012F10E020E030E06017710782079307A0
:102EF00041F061E082E897E01AC061E088E597E080
:102F000016C08091EF059091F005A091F105B09168
:102F1000F2058093A1039093A203A093A303B0931F
:102F2000A40311C0892B79F060E087EA96E0DF9175
:102F3000CF911F910F91FF90EF90DF90CF90BF90B6
:102F4000AF909F90A7CE80913502811129C067E490
:102F500070E0CE010E947E6A009711F14AE050E0D5
:102F600060E070E001960E94805F64307105C0F4FB
:102F7000E1E5F7E084918F010F5F1F4F882321F077
:102F80000E94D920F801F6CFEAEDF6E084918F0196
:102F90000F5F1F4F882321F00E94D920F801F6CF40
:102FA0006FE273E0CE010E94896A892B11F41092BE
:102FB0001A0264E373E0CE010E94896A892B09F04A
:102FC000F2CE81ED96E016D6CF35D1050CF000CFCC
:102FD0008C3541F40E941D27882309F4F9CE0E9404
:102FE000272705C08B3319F491E0909355069091F3
:102FF00055069111EDCE9E012F5F3F4F3093540641
:1030000020935306CD50DA4F8883E2CEDF91CF91E3
:103010001F910F91FF90EF90DF90CF90BF90AF90F6
:103020009F9008954F925F926F927F92AF92BF925E
:10303000CF92DF92EF92FF92CF93DF93EB01FC01EF
:1030400060817181828193812CE3C22ED12CE12C8D
:10305000F12CA70196010E941966B62EA72ECA016F
:10306000B901A70196010E9419666B017C01CA0192
:10307000B90128E130E040E050E00E9419662B01E0
:103080003C01C9016DE671E00E9419696115710585
:10309000D9F0AF92BF92DF92CF925F924F929F93FF
:1030A0008F937F936F9389E796E09F938F93DF933E
:1030B000CF930E9425628DB79EB70E960FB6F894F7
:1030C0009EBF0FBE8DBF61C00097C9F0AF92BF9287
:1030D000DF92CF925F924F929F938F9389E696E013
:1030E0009F938F93DF93CF930E942562EDB7FEB736
:1030F0003C960FB6F894FEBF0FBEEDBF46C041141C
:10310000510461047104B9F0AF92BF92DF92CF9283
:103110005F924F928DE596E09F938F93DF93CF93CD
:103120000E9425628DB79EB70A960FB6F8949EBF8F
:103130000FBE8DBF2AC0C114D104E104F104A9F06F
:10314000AF92BF92DF92CF9285E596E09F938F93E7
:10315000DF93CF930E942562EDB7FEB738960FB686
:10316000F894FEBF0FBEEDBF10C0AF92BF9281E5D5
:1031700096E09F938F93DF93CF930E9425620F90E9
:103180000F900F900F900F900F90DF91CF91FF90C5
:10319000EF90DF90CF90BF90AF907F906F905F9057
:1031A0004F9008951F920F920FB60F9211240BB6F5
:1031B0000F922F933F938F939F93EF93FF932091C1
:1031C000C6009FB7F894E091270781E08E0F8F77B4
:1031D00030912807831731F0F0E0E955F94F20834B
:1031E000809327079FBFFF91EF919F918F913F9110
:1031F0002F910F900BBE0F900FBE0F901F90189540
:103200001F920F920FB60F9211240BB60F928F934D
:103210009F93EF93FF9380914A07E82FF0E0E75DDB
:10322000F84F90818F5F8F7180934A079093C6000B
:103230008091C00080648093C00090914907809184
:103240004A07981305C08091C1008F7D8093C1000B
:10325000FF91EF919F918F910F900BBE0F900FBE3A
:103260000F901F9018951F920F920FB60F92112476
:103270000BB60F922F933F934F935F936F937F9370
:103280008F939F93AF93BF93CF93DF93EF93FF936E
:1032900080916E008B7F80936E0080916F008D7F98
:1032A00080936F00789488B5805C88BD8091A60675
:1032B000811108C080915B0C8093A50681112C9A26
:1032C0001092A4068091A30681110EC080919903EB
:1032D0008093A206882341F09FB7F8948091020161
:1032E0008064809302019FBF8091A5069091A606FD
:1032F000891303C08F3F09F02C988091A406909108
:10330000A60689130AC08F3F41F09FB7F8948091B9
:1033100002018F7D809302019FBF8091A206909150
:10332000A30689130AC08F3F41F09FB7F89480919C
:1033300002018F7B809302019FBF8091A006909134
:10334000A1060196863821E0920728F49093A10601
:103350008093A00607C01092A1061092A00681E0FB
:1033600080939F0680917A0086FD5BC0E091780093
:10337000F091790030919E06832F90E0DC01AA0F36
:10338000BB1FAA0FBB1FA656B94F4D915D916D9102
:103390007C9113974E0F5F1F611D711D4D935D93BF
:1033A0006D937C931397EC01C756D94F28812F5FFB
:1033B0002883203288F1880F991FFC01E956F94FC4
:1033C00085E075956795579547958A95D1F751830F
:1033D00040831D921D921D921C9213971882109289
:1033E0009E063F3F19F081E080939606E0919E068D
:1033F000F0E0E553F44FE49180917B00E3FF02C0DD
:10340000886001C0877F80937B0080917C00E7709B
:10341000807EE82BE0937C0080917A00806480932A
:103420007A00809196068823C9F1C0919706D091C1
:103430009806D0935A0CC093590CD195C195D109D7
:1034400080919406909195069195819591098C179C
:103450009D076CF480919F039091A00318161906A4
:1034600034F46DE87BE08AE99BE00E945B44809144
:103470001C0290911D02919581959109C817D90759
:103480006CF480919F039091A0031816190634F4F0
:103490006CEA7BE089EB9BE00E945B448091A6068E
:1034A0008F5F8093A6068091A3068F5F8093A3060B
:1034B000F89480916E00846080936E0080916F001C
:1034C000826080936F00FF91EF91DF91CF91BF9168
:1034D000AF919F918F917F916F915F914F913F91AC
:1034E0002F910F900BBE0F900FBE0F901F9018954D
:1034F000CF93DF93EC0120E030E0A901688179816E
:103500008A819B810E94546287FF04C018821982BD
:103510001A821B8220E030E0A9016C817D818E81BE
:103520009F810E94546287FF04C01C821D821E82FC
:103530001F8220E030E0A901688579858A859B8516
:103540000E94546287FF04C0188619861A861B865B
:1035500020E030E048E453E4688179818A819B81EE
:103560000E947B68181644F480E090E0A8E4B3E47D
:1035700088839983AA83BB8320E030E048E453E446
:103580006C817D818E819F810E947B68181644F436
:1035900080E090E0A8E4B3E48C839D83AE83BF8396
:1035A00020E030E048E453E4688579858A859B858E
:1035B0000E947B68181644F480E090E0A8E4B3E42D
:1035C00088879987AA87BB87DF91CF9108954F920B
:1035D0005F926F927F928F929F92AF92BF92CF92A3
:1035E000DF92EF92FF920F931F93CF93DF9300D060
:1035F00000D0CDB7DEB77C01FC01E657F44F6491F3
:103600006C01CC0CDD1CCC0CDD1CF601E258F44F37
:103610004590559065907490062E000C770B880BA2
:10362000990B0E945A624B015C0120E030E040ECB3
:103630005FE3C301B2010E94B962A50194010E9437
:10364000B962AB01BC0100E010E09801C701CDD91F
:10365000F601EE58F44F2591359145915491C501ED
:10366000B4010E94B9624B015C0120E030E0A90185
:103670000E945462882309F456C000E010E09801CB
:10368000B501A4017058C701B0D986E0ECE9F2E0B9
:10369000DE01119601900D928A95E1F7F701EE0F88
:1036A000FF1F81E090E08C0F9D1FE80FF91F8081C4
:1036B000918118161906C4F0EBE6FBE084918F01A6
:1036C0000F5F1F4F882319F074D5F801F7CFE9E495
:1036D000FBE084918F010F5F1F4F882319F069D59C
:1036E000F801F7CF8AE090E0BC01990F880B990BA5
:1036F0000E945A629B01AC01F601EE55FD4F6081BC
:103700007181828193810E9431672B013C01A50167
:103710009401C501B4010E945566AB01BC0193013F
:103720008201C70162D9F701EF56F94F81E080832A
:10373000F701EE58FC4F8083F601E35CF44F65918E
:1037400075918591949186010E591C4F20E030E0CF
:10375000A9010E945566F801608371838283938377
:10376000EDD896012E5B3C4FF80180819181A281BA
:10377000B381F90180839183A283B38326960FB628
:10378000F894DEBF0FBECDBFDF91CF911F910F9197
:10379000FF90EF90DF90CF90BF90AF909F908F9071
:1037A0007F906F905F904F900895EF92FF920F93EC
:1037B0001F93CF93DF9382E08093C0001092C500E7
:1037C00080E18093C4008091C10080618093C1003A
:1037D0008091C10088608093C1008091C1008068A1
:1037E0008093C1008091C1008F7D8093C1001092B1
:1037F0004B0761E070E080E090E00E942A3FE7E341
:10380000FBE08491EF012196882319F0D2D4FE01C8
:10381000F8CF8AE0CED4E1E3FBE08491EF0121967A
:10382000882319F0C6D4FE01F8CFC4B7C0FF0BC07F
:10383000E2E8FAE084918F010F5F1F4F882319F0AF
:10384000B8D4F801F7CFC1FF0BC0E2E7FAE08491EA
:103850008F010F5F1F4F882319F0ABD4F801F7CF0A
:10386000C2FF0BC0E1E6FAE084918F010F5F1F4FAA
:10387000882319F09ED4F801F7CFC3FF0BC0E1E510
:10388000FAE084918F010F5F1F4F882319F091D4C4
:10389000F801F7CFC5FF0AC0E1E4FAE08491EF0137
:1038A0002196882319F085D4FE01F8CF14BEEBE2EF
:1038B000FBE08491EF012196882319F07AD4FE0170
:1038C000F8CFEDE1FBE08491EF012196882319F018
:1038D00070D4FE01F8CFE7E1FBE08491EF0121967F
:1038E000882319F066D4FE01F8CFE2EDFAE0849166
:1038F000EF012196882319F05CD4FE01F8CFECEC9F
:10390000FAE08491EF012196882319F052D4FE0148
:10391000F8CFE5EBFAE08491EF012196882319F0C6
:1039200048D4FE01F8CFEFEAFAE08491EF01219646
:10393000882319F03ED4FE01F8CF1FB7F89484E035
:1039400090E00E945169EC010E94E6696DB77EB774
:103950007B01EC1AFD0A1FBFE1EAFAE08491EF0156
:103960002196882319F025D4FE01F8CFB701FF0C6A
:10397000880B990B3CD6EBE8FAE08491EF01219695
:10398000882319F016D4FE01F8CF60EC74E080E0D3
:1039900090E02DD68AE00DD481E080936706809375
:1039A00068068093690680936A065CD480E0AAD694
:1039B00080E1E2E6F3E0DF011D928A95E9F70E94DB
:1039C0009E14249A8091010180628093010180916C
:1039D000010180648093010180E480937C00109257
:1039E000990610929A0610929B0610929C061092CD
:1039F0009D0687EC80937A0080917A0086FDFCCF4B
:103A0000E0919E06F0E0E553F44FE49180917B0055
:103A1000E3FF02C0886001C0877F80937B008091B4
:103A20007C00E770807EE82BE0937C0080917A0038
:103A3000806480937A0014BC15BC80E488BD85B591
:103A4000836085BD80916E00846080936E006AEF14
:103A500070E080E090E00E942A3F85E090E0909343
:103A6000580C8093570C60E080911C0290911D02CD
:103A70000E94B83F20E030E040EA50E40E945462E7
:103A800087FF0AC080911C0290911D0205979093B8
:103A90001D0280931C02E7CF83E191E090933402F2
:103AA0008093330260E080919406909195060E9485
:103AB000B83F20E030E849E853E40E947B681816DC
:103AC00054F48091940690919506059690939506EE
:103AD00080939406E7CF819A879A80910A01826049
:103AE00080930A010E9A579A5F9A829A8A9A8091D5
:103AF00007018160809307019FB7F89480910801C6
:103B00008160809308019FBF0A9A129A6D98759AF6
:103B1000809104018D7F809304019FB7F894809178
:103B200005018260809305019FBF53985B9A809A3C
:103B300088985F9A10927203869A8E988A9A109249
:103B4000730380910A01886080930A019FB7F894FB
:103B500080910B01877F80930B019FBF9FB7F894E3
:103B6000809108018160809308019FBF10927403C7
:103B70000C9A1498129A809181008F7E8093810014
:103B800080918100886080938100809180008D7F8A
:103B900080938000809180008E7F80938000809150
:103BA00080008F7380938000809180008F7C809351
:103BB000800080918100887F82608093810080E016
:103BC00090E4909389008093880010928500109271
:103BD000840080916F00826080936F0081E0809309
:103BE00008027894DF91CF911F910F91FF90EF9091
:103BF0000C942C37EAE3FAE08491EF0121968823B4
:103C000019F0D7D2FE01F8CFEAE1FAE08491EF0192
:103C10002196882319F0CDD2FE01F8CF0E9457409B
:103C20000E94553668E572E080E090E00E942A3FED
:103C3000F8946AEF70E080E090E00E942A3F0E94D2
:103C40005740FFCF4F925F926F927F928F929F92D9
:103C5000AF92BF92CF92DF92EF92FF920F931F939A
:103C6000CF93DF938091A905843008F455D80E9442
:103C7000623FC0907503D0907603E0907703F09098
:103C80007803C114D104E104F10409F439C00091AE
:103C90003E0310913F0320914003309141030C0DEE
:103CA0001D1D2E1D3F1D6B017C01C01AD10AE20AA9
:103CB000F30AF7FC25C0E3E1FAE08491EF012196D5
:103CC000882319F076D2FE01F8CF109109040091F3
:103CD0000A04E9EDF9E08491EF012196811103C016
:103CE000C12FD02F03C065D2FE01F5CF8991882363
:103CF00011F05FD2FBCF8AE05CD280ED99E07ADFF1
:103D0000C0900402D0900502E0900602F0900702F5
:103D1000C114D104E104F104D9F000913E031091E3
:103D20003F0320914003309141030C0D1D1D2E1DBA
:103D30003F1DDC01CB01801B910BA20BB30BB7FD28
:103D400007C09091AE0C8091AF0C981709F4C7C1D1
:103D50009091AE0C8091AF0C981749F08091AF0C08
:103D60009091AE0C891719F08F5F8F70F9CF809109
:103D70005C0C882309F4F7C000912B0210912C02EF
:103D8000D0912D02C0912E0260919F037091A003EB
:103D90006E5F7F4F072E000C880B990B0E945A62B2
:103DA00098014D2F5C2F0E94546287FDDCC0F0907B
:103DB000AF0C912CA12CB12CE12C8CE4882E80919D
:103DC000AE0CF81609F45CC08F2D90E0889EF001CF
:103DD000899EF00D1124EA59F84F43815481658181
:103DE0007681452B462B472B81F447815085618591
:103DF0007285452B462B472B41F4438554856585B9
:103E00007685452B462B472BB1F1889E9001899EE4
:103E1000300D1124C9018A59984F6C01FC01678546
:103E20007089818992890E945A622B013C01F601B6
:103E300063897489858996890E9458629B01AC01C7
:103E4000C301B2010E943167F60124A135A146A148
:103E500057A10E94B9623B016C019B01AC01692D25
:103E60007A2D8B2D9E2D0E94546287FF04C0962CC4
:103E7000A72CBC2CED2C81E08F0D8F70F82E9FCFDE
:103E800020912F0230913002409131025091320244
:103E9000692D7A2D8B2D9E2D0E94B9629B01AC015C
:103EA000B8018D2F9C2F0E9455666B017C019801F3
:103EB0004D2F5C2F0E94546287FD14C00091270291
:103EC00010912802D0912902C0912A0298014D2F09
:103ED0005C2FB601C7010E947B6818161CF0860192
:103EE000DE2DCF2DC0906B06D0906C06E0906D0655
:103EF000F0906E06A7019601B8018D2F9C2F0E94AD
:103F0000546287FF1CC020E037ED43EA5CE3B80150
:103F10008D2F9C2F0E94B9624B015C0128E431EE89
:103F20004AE75FE3C701B6010E94B9629B01AC0199
:103F3000C501B4010E9455668B01D82FC92FC80155
:103F4000AD2FBC2F80936B0690936C06A0936D06EB
:103F5000B0936E06B8018D2F9C2F0E9499677093C5
:103F6000A00360939F038091890681110DC00E9478
:103F7000623F6093850670938606809387069093D0
:103F8000880681E08093890680917D0681110DC0AD
:103F90000E94623F6093790670937A0680937B0655
:103FA00090937C0681E080937D060E94623F6B01C6
:103FB0007C0180917106811114C04091BE0C50911A
:103FC000BF0C28EE33E0429FC001439F900D529FEB
:103FD000900D11249093700680936F0681E080937A
:103FE00071068091850690918606A0918706B09112
:103FF0008806B701A601481B590B6A0B7B0B809101
:104000006F0690917006A0E0B0E0481759076A0764
:104010007B0708F454C02091BE0C3091BF0C8091F6
:10402000CE0C9091CF0CA091D00CB091D10C820FFE
:10403000931FA11DB11D8093CE0C9093CF0CA09324
:10404000D00CB093D10C8091B00C9091B10C019731
:1040500071F58090C20C9090C30CA090C40CB090ED
:10406000C50C80EB9CE00E94DD416093C20C709314
:10407000C30C8093C40C9093C50C0091CA0C109192
:10408000CB0C2091CC0C3091CD0C081919092A09C0
:104090003B09DC01CB01800F911FA21FB31F80934E
:1040A000CA0C9093CB0CA093CC0CB093CD0CC092C7
:1040B0008506D0928606E0928706F0928806809167
:1040C0009F068823F1F010929F060E948140809104
:1040D0001B02815009F48FE080931B0212C05F9A8B
:1040E000109272038A9A109273039FB7F89480918A
:1040F00008018160809308019FBF10927403129A97
:1041000027CEDF91CF911F910F91FF90EF90DF901D
:10411000CF90BF90AF909F908F907F906F905F9067
:104120004F900895CF92DF92EF92FF92C0900A02D3
:10413000D0900B02E0900C02F0900D028091A6034B
:10414000882331F120E030E0A901C701B6010E94C7
:1041500054628823E9F020E030E040E05FE3C701EB
:10416000B6010E94B9626B017C012BED3FE049E48E
:1041700050E40E94B962A70196010E94B9629B01B6
:10418000AC0160E070E080E89FE30E94316704C00A
:1041900060E070E080E89FE360931E0270931F026E
:1041A0008093200290932102FF90EF90DF90CF90B8
:1041B000089591E090934B073FB7F89420914907F9
:1041C00090914A073FBF291304C09091C00095FD0C
:1041D0003EC0909149079F5F9F7120914A079213BB
:1041E00025C00FB607FCF9CF2091C00025FFF5CF01
:1041F00020914A07E22FF0E0E75DF84F30812F5F12
:104200002F7120934A073093C6002091C00020648C
:104210002093C0003091490720914A073213DDCF27
:104220002091C1002F7D2093C100D7CFE091490795
:10423000F0E0E75DF84F80832FB7F894909349073B
:104240008091C10080628093C1002FBF08959FB705
:10425000F8948093C6008091C00080648093C00071
:104260009FBF0895AF92BF92CF92DF92EF92FF92DD
:104270000F931F93CF93DF93CDB7DEB7CC56D10901
:104280000FB6F894DEBF0FBECDBF84E2EEEAF2E0D7
:10429000DE01A75BBF4F01900D928A95E1F784E2A2
:1042A000E2EDF2E0DE01959601900D928A95E1F73C
:1042B00084E2E6EFF2E0DE01119601900D928A951C
:1042C000E1F7FE01E75BFF4F69E873E0AE014B5D8C
:1042D0005F4F27EB33E0CE0101965C0187EA93E064
:1042E0008F01005F1F4FC190D190E190F190DB01F1
:1042F000CD92DD92ED92FD92BD01DA01CD90DD907F
:10430000ED90FD90AD01D901CD92DD92ED92FD923F
:104310009D01D501CD90DD90ED90FD905D01DC011A
:10432000CD92DD92ED92FD92CD01E017F107D9F625
:1043300080E090E4ACE1B6E48093C7039093C803B7
:10434000A093C903B093CA0380E090E0A0EAB0E470
:104350008093E1039093E203A093E303B093E4031B
:104360001092540710925507109256071092570753
:10437000109258071092590710925A0710925B0733
:1043800010925C0710925D0710925E0710925F0713
:1043900080E090E8ABE3B5E48093CF039093D00343
:1043A000A093D103B093D2038093CB039093CC031B
:1043B000A093CD03B093CE031092ED031092EE03C1
:1043C0001092EF031092F00380E29EE4A0E0B0E0D0
:1043D0008093E5039093E603A093E703B093E8038B
:1043E0001092E9031092EA031092EB031092EC038F
:1043F00080E090E0A0E2B1E48093D5039093D603EF
:10440000A093D703B093D8038093D9039093DA0392
:10441000A093DB03B093DC038DEC9CECACECBEE32F
:104420008093DD039093DE03A093DF03B093E0035A
:104430001092500710925107109252071092530792
:1044400080E090E0A0E2B2E48093F9039093FA0355
:10445000A093FB03B093FC0380E090E0A0EEB0E4F7
:104460008093F5039093F603A093F703B093F803BA
:1044700080E090E0A0E7B2E48093F1039093F20330
:10448000A093F303B093F40380E090E0A8ECB2E4CF
:1044900080934C0790934D07A0934E07B0934F071E
:1044A0001092A60380E090E0A0EEBFE380930A02A2
:1044B00090930B02A0930C02B0930D02109208028D
:1044C0001092A5030E944B420E947C430E94AD4182
:1044D00029DEEFEEFBE084918F010F5F1F4F8823F1
:1044E00019F067DEF801F7CFECECFBE084918F0167
:1044F0000F5F1F4F882319F05CDEF801F7CFC45916
:10450000DF4F0FB6F894DEBF0FBECDBFDF91CF9166
:104510001F910F91FF90EF90DF90CF90BF90AF90E1
:1045200008958F929F92AF92BF92EF92FF921F9346
:10453000CF93DF93CDB7DEB7A0970FB6F894DEBF69
:104540000FBECDBF611571058105910579F110E0B0
:10455000842E912CA12CB12CEE24E394F12CEC0EA2
:10456000FD1EE10EF11C17FDFA94A50194010E94B5
:104570001966F7016083B901CA011F5F61157105F2
:104580008105910549F7115010F1E1E0F0E0EC0FE1
:10459000FD1FE10FF11D17FDFA9580818A3010F0A3
:1045A00097E301C090E3890F04DEEDCF80E3A0968E
:1045B0000FB6F894DEBF0FBECDBFDF91CF911F9134
:1045C000FF90EF90BF90AF909F908F90F2CDA0960C
:1045D0000FB6F894DEBF0FBECDBFDF91CF911F9114
:1045E000FF90EF90BF90AF909F908F900895CF92E3
:1045F000DF92EF92FF926B017C0197FF0AC08DE280
:10460000D8DDF094E094D094C094C11CD11CE11C7E
:10461000F11C4AE0C701B601FF90EF90DF90CF9008
:1046200080CF8F929F92AF92BF92CF92DF92EF9204
:10463000FF92CF936B017C01B42E20E030E0A90102
:104640000E94546287FF06C08DE2B3DDF7FAF09452
:10465000F7F8F094C0E060E070E080E09FE3CB15F5
:1046600041F02DEC3CEC4CEC5DE30E94B962CF5F75
:10467000F6CF9B01AC01C701B6010E9455666B01E4
:104680007C010E949E674B015C014AE04ADFCC231B
:1046900079F1C501B4010E9458629B01AC01C701C8
:1046A000B6010E9454666B017C018EE282DD20E03F
:1046B00030E040E251E4C701B6010E94B9624B010B
:1046C0005C010E9499676B01770FEE08FF08C70134
:1046D000B6018DDFC701B6010E945A629B01AC0191
:1046E000C501B4010E9454666B017C01C150F9F60A
:1046F000CF91FF90EF90DF90CF90BF90AF909F90C1
:104700008F900895CF92DF92EF92FF920F931F93B5
:10471000CF93DF93C82FE3E5FEE084918F010F5F15
:104720001F4F882319F045DDF801F7CFEEE3FEE0D7
:1047300084918F010F5F1F4F882319F03ADDF80134
:10474000F7CF8AE036DDCC2319F0E5E2FEE00BC0BE
:10475000E6E3FEE084918F010F5F1F4F8823A9F3EA
:1047600028DDF801F7CF84918F010F5F1F4F882359
:1047700019F01FDDF801F7CFEDE1FEE084918F0124
:104780000F5F1F4F882319F014DDF801F7CFC09099
:104790008903D0908A03E0908B03F0908C03E5E1CD
:1047A000FEE084918F010F5F1F4F882319F001DD18
:1047B000F801F7CF43E0C701B60133DFC0908D03A6
:1047C000D0908E03E0908F03F0909003E2E1FEE042
:1047D00084918F010F5F1F4F882319F0EADCF801E5
:1047E000F7CF43E0C701B6011CDFC0909103D09022
:1047F0009203E0909303F0909403EFE0FEE0849145
:104800008F010F5F1F4F882319F0D3DCF801F7CF1A
:1048100043E0C701B60105DFC0909503D090960331
:10482000E0909703F0909803E9E0FEE084918F0117
:104830000F5F1F4F882319F0BCDCF801F7CF43E06E
:10484000C701B601EEDE8AE0B4DCCC2319F0E3EE5A
:10485000FDE00BC0E1E0FEE084918F010F5F1F4F90
:104860008823A9F3A6DCF801F7CF84918F010F5FAD
:104870001F4F882319F09DDCF801F7CFEBEDFDE029
:1048800084918F010F5F1F4F882319F092DCF8018C
:10489000F7CFC090B703D090B803E090B903F09081
:1048A000BA03E2EDFDE084918F010F5F1F4F882373
:1048B00019F07FDCF801F7CF43E0C701B601B1DEA4
:1048C000C090BB03D090BC03E090BD03F090BE034A
:1048D000EFECFDE084918F010F5F1F4F882319F0EB
:1048E00068DCF801F7CF43E0C701B6019ADEC0905B
:1048F000BF03D090C003E090C103F090C203ECEC82
:10490000FDE084918F010F5F1F4F882319F051DC68
:10491000F801F7CF43E0C701B60183DEC090C303BF
:10492000D090C403E090C503F090C603E6ECFDE030
:1049300084918F010F5F1F4F882319F03ADCF80133
:10494000F7CF43E0C701B6016CDE8AE032DCCC234E
:1049500019F0ECE9FDE00BC0EEEBFDE084918F0176
:104960000F5F1F4F8823A9F324DCF801F7CF849150
:104970008F010F5F1F4F882319F01BDCF801F7CF61
:10498000E4E9FDE084918F010F5F1F4F882319F048
:1049900010DCF801F7CFC090A703D090A803E090F7
:1049A000A903F090AA03EBE8FDE084918F010F5F6B
:1049B0001F4F882319F0FDDBF801F7CFC701B601BF
:1049C00016DEC090AB03D090AC03E090AD03F09046
:1049D000AE03E8E8FDE084918F010F5F1F4F88234D
:1049E00019F0E7DBF801F7CFC701B60100DEC09090
:1049F000AF03D090B003E090B103F090B203E5E8CC
:104A0000FDE084918F010F5F1F4F882319F0D1DBE8
:104A1000F801F7CFC701B601EADDC090B303D0902B
:104A2000B403E090B503F090B603EFE7FDE08491A6
:104A30008F010F5F1F4F882319F0BBDBF801F7CF01
:104A4000C701B601D4DD8AE0B4DBCC2319F0EAE279
:104A5000FDE00BC0E7E7FDE084918F010F5F1F4F82
:104A60008823A9F3A6DBF801F7CF84918F010F5FAC
:104A70001F4F882319F09DDBF801F7CFE2E2FDE03C
:104A800084918F010F5F1F4F882319F092DBF8018B
:104A9000F7CFC090CF03D090D003E090D103F09037
:104AA000D203E9E1FDE084918F010F5F1F4F88235E
:104AB00019F07FDBF801F7CF43E0C701B601B1DDA4
:104AC000C090CB03D090CC03E090CD03F090CE0308
:104AD000E6E1FDE084918F010F5F1F4F882319F0FD
:104AE00068DBF801F7CF43E0C701B6019ADDC0905B
:104AF000C703D090C803E090C903F090CA03E0E177
:104B0000FDE084918F010F5F1F4F882319F051DB67
:104B1000F801F7CF43E0C701B60183DD8AE049DB46
:104B2000CC2319F0E7E8FCE00BC0E8E0FDE084915D
:104B30008F010F5F1F4F8823A9F33BDBF801F7CFED
:104B400084918F010F5F1F4F882319F032DBF8012A
:104B5000F7CFEFE7FCE084918F010F5F1F4F8823B1
:104B600019F027DBF801F7CFC090ED03D090EE03EA
:104B7000E090EF03F090F003E6E7FCE084918F0112
:104B80000F5F1F4F882319F014DBF801F7CF43E0C4
:104B9000C701B60146DDC090E903D090EA03E0907A
:104BA000EB03F090EC03E3E7FCE084918F010F5FEF
:104BB0001F4F882319F0FDDAF801F7CF43E0C70152
:104BC000B6012FDDC090E503D090E603E090E70347
:104BD000F090E803E0E7FCE084918F010F5F1F4F46
:104BE000882319F0E6DAF801F7CFC701B601FFDC38
:104BF000C090D503D090D603E090D703F090D803AF
:104C0000EDE6FCE084918F010F5F1F4F882319F0C0
:104C1000D0DAF801F7CF43E0C701B60102DDC0905A
:104C2000D903D090DA03E090DB03F090DC03EAE6EE
:104C3000FCE084918F010F5F1F4F882319F0B9DAD0
:104C4000F801F7CF43E0C701B601EBDCC090DD030C
:104C5000D090DE03E090DF03F090E003E7E6FCE0B5
:104C600084918F010F5F1F4F882319F0A2DAF8019A
:104C7000F7CF43E0C701B601D4DCC090E103D09088
:104C8000E203E090E303F090E403E1E6FCE08491CA
:104C90008F010F5F1F4F882319F08BDAF801F7CFD0
:104CA00043E0C701B601BDDC8AE083DACC2319F00A
:104CB000EAE4FCE00BC0E9E5FCE084918F010F5FC2
:104CC0001F4F8823A9F375DAF801F7CF84918F017C
:104CD0000F5F1F4F882319F06CDAF801F7CFE2E479
:104CE000FCE084918F010F5F1F4F882319F061DA78
:104CF000F801F7CFE8E3FCE084918F010F5F1F4FCD
:104D0000882319F056DAF801F7CFC090F903D09054
:104D1000FA03E090FB03F090FC03E5E3FCE08491F0
:104D20008F010F5F1F4F882319F043DAF801F7CF87
:104D300042E0C701B60175DCC090F503D090F603E0
:104D4000E090F703F090F803E2E3FCE084918F0138
:104D50000F5F1F4F882319F02CDAF801F7CF42E0DC
:104D6000C701B6015EDCC090F103D090F203E09081
:104D7000F303F090F403EFE2FCE084918F010F5F06
:104D80001F4F882319F015DAF801F7CF42E0C70169
:104D9000B60147DC8AE00DDAC1111AC0E7E2FCE097
:104DA0008491EF012196882319F003DAFE01F8CFF0
:104DB000E4E1FCE08491EF012196882319F0F9D910
:104DC000FE01F8CF8091A603882329F08AE0F1D96B
:104DD000E1E0FCE00AC0E9E0FCE08491EF0121960B
:104DE0008823B1F3E6D9FE01F8CF8491EF01219633
:104DF000882319F0DED9FE01F8CFC0900A02D090C6
:104E00000B02E0900C02F0900D02E5EFFBE08491C4
:104E1000EF012196882319F0CCD9FE01F8CF43E0A9
:104E2000C701B601FEDB8AE0DF91CF911F910F91A0
:104E3000FF90EF90DF90CF90BCC92FB7F89480918E
:104E40002707909128072FBF891B8F7708958FB769
:104E5000F8949091280720912707291759F0E92FF6
:104E6000F0E0E955F94F208130E09F5F9F77909304
:104E7000280702C02FEF3FEF8FBFC90108954F925F
:104E80005F926F927F92AF92BF92CF92DF92EF923A
:104E9000FF920F931F93CF93DF93009709F456C0AF
:104EA000FC01208121FD52C0EB018C0140A451A4E2
:104EB00062A473A4A8A4B9A4CAA4DBA49501A60102
:104EC000C301B2010E94546287FF40C0A301920156
:104ED000C301B2010E94B9622B013C01F80184A90F
:104EE00095A9A6A9B7A9BC01CD0190589B01AC0119
:104EF0000E945566F80120A931A942A953A90E9430
:104F0000B9629B01AC01C301B2010E9454660E94C8
:104F1000C0687B018C019B01AC01B501C6010E94F8
:104F2000546287FF02C0750186019701A801B5018F
:104F3000C6010E945462882349F0A701B80148A71E
:104F400059A76AA77BA7888181608883DF91CF9169
:104F50001F910F91FF90EF90DF90CF90BF90AF9097
:104F60007F906F905F904F9008952F923F924F9255
:104F70005F926F927F928F929F92AF92BF92CF92E9
:104F8000DF92EF92FF920F931F93CF93DF93CDB7F2
:104F9000DEB768970FB6F894DEBF0FBECDBF1C0119
:104FA0005B018A01DC01D8966D917D918D919C9178
:104FB000DB970E9458626B017C01F50120813181F1
:104FC000428153810E94B9620E941B670E949E67C2
:104FD00069877A878B879C87D8012D913D914D9168
:104FE0005C91C701B6010E94B9620E941B670E94D2
:104FF0009E676D877E878F87988B29853A854B853D
:105000005C85283731054105510540F488E790E07B
:10501000A0E0B0E089879A87AB87BC872D853E8565
:105020004F855889283731054105510540F488E7F7
:1050300090E0A0E0B0E08D879E87AF87B88B9101AC
:105040002C5B3F4FD9018D919D910D90BC91A02D6E
:105050008D839E83AF83B887BC01CD010E945A62C5
:1050600069837A838B839C8369857A858B859C850C
:105070000E945862698B7A8B8B8B9C8B20E030E08E
:10508000A90169817A818B819C810E945462882365
:1050900039F1A7019601C701B6010E94B9624B011F
:1050A0005C0129893A894B895C89CA01B9010E944E
:1050B000B9629B01AC01C501B4010E9454664B0169
:1050C0005C0129813A814B815C81CA01B9010E944E
:1050D00055669B01AC01C501B4010E94316703C054
:1050E00060E070E0CB010E941B670E9499672B0172
:1050F0003C016D817E818F8198859095809570951A
:1051000061957F4F8F4F9F4F0E945A624B015C0108
:105110006D857E858F8598890E9458626D837E8318
:105120008F83988720E030E0A901C501B4010E9477
:105130005462882349F12D813E814F815885CA01EF
:10514000B9010E94B9626D8B7E8B8F8B988FA701FE
:105150009601C701B6010E94B9629B01AC016D893D
:105160007E898F89988D0E9454666B017C01A50110
:105170009401C501B4010E9455669B01AC01C701B1
:10518000B6010E94316703C060E070E0CB010E946D
:10519000CA67F10183889488A588B688750164017F
:1051A000C418D508E608F7080E949967C61AD70AF6
:1051B000E80AF90AF7FE6BC020E030E0A901698136
:1051C0007A818B819C810E945462882309F447C0B4
:1051D00029813A814B815C81CA01B9010E945566DF
:1051E0006B017C01C501B4010E9458629B01AC01B6
:1051F000C701B6010E94B9626B017C0129893A8915
:105200004B895C89CA01B9010E94B9629B01AC015A
:10521000C701B6010E9454666B017C012D813E815D
:105220004F815885CA01B9010E94B9629B01AC0146
:10523000C701B6010E9455666B017C0120E030E099
:1052400040E850E469817A818B819C810E94B96237
:105250009B01AC01C701B6010E94316703C060E049
:1052600070E0CB010E941B670E9499672B013C01F3
:1052700097FF03C0412C512C3201481459046A0491
:105280007B0410F024013501C12CD12C76018FB79D
:10529000F894D1019C9193FD23C0F101478A508E6F
:1052A000618E728EC40CD51CE61CF71C5B96CD92E9
:1052B000DD92ED92FC925E9729853A854B855C855F
:1052C000DC962D933D934D935C93DF97E05CFF4F0D
:1052D0002D853E854F8558892083318342835383B2
:1052E0008FBF68960FB6F894DEBF0FBECDBFDF91BB
:1052F000CF911F910F91FF90EF90DF90CF90BF90D3
:10530000AF909F908F907F906F905F904F903F9065
:105310002F9008952F923F924F925F926F927F92BB
:105320008F929F92AF92BF92CF92DF92EF92FF92B5
:105330000F931F93CF93DF93CDB7DEB7CA57D10931
:105340000FB6F894DEBF0FBECDBF1B012A01490185
:10535000EFAE2496FFAE249738012396CFAE239765
:10536000AFAA2091890330918A0340918B03509119
:105370008C03DC016D917D918D919C910E94B962AD
:105380000E948668E3966CAF7DAF8EAF9FAFE397C8
:1053900020918D0330918E0340918F0350919003A3
:1053A000F10160817181828193810E94B9620E94C2
:1053B0008668E7966CAF7DAF8EAF9FAFE797209181
:1053C0009103309192034091930350919403D20141
:1053D0006D917D918D919C910E94B9620E94866829
:1053E000EB966CAF7DAF8EAF9FAFEB97209195039F
:1053F000309196034091970350919803F401608196
:105400007181828193810E94B9620E9486686D9643
:105410006CAF7DAF8EAF9FAF6D9780919E0C9091DA
:105420009F0CA091A00CB091A10CE3968CAC9DAC0C
:10543000AEACBFACE397881A990AAA0ABB0A80915E
:10544000A20C9091A30CA091A40CB091A50CE7968E
:105450002CAC3DAC4EAC5FACE797281A390A4A0A2F
:105460005B0A2BA63CA64DA65EA68091A60C909149
:10547000A70CA091A80CB091A90CEB962CAC3DAC5C
:105480004EAC5FACEB97281A390A4A0A5B0A2FA682
:1054900038AA49AA5AAA8091080483FF0EC06D96C3
:1054A0002CAC3DAC4EAC5FAC6D972092AA0C309208
:1054B000AB0C4092AC0C5092AD0C8091AA0C909128
:1054C000AB0CA091AC0CB091AD0C6D96CCACDDAC3E
:1054D000EEACFFAC6D97C81AD90AEA0AFB0A09F4C8
:1054E00040C08091FD0381113FC060911402709112
:1054F000150280E090E00E9458629B01AC0160912F
:105500009B0370919C0380919D0390919E030E9448
:10551000546287FF29C06D962CAC3DAC4EAC5FAC9D
:105520006D972092AA0C3092AB0C4092AC0C50922A
:10553000AD0CE5E7FEE084918F010F5F1F4F8823DC
:1055400021F00E94D920F801F6CFEBE5FEE084912E
:105550008F010F5F1F4F882321F00E94D920F8018F
:10556000F6CFC12CD12C7601D501C4018827B7FD17
:1055700083959927AA27BB27182F2BA43CA44DA4B9
:105580005EA457FC12602FA438A849A85AA857FC5B
:105590001460F7FC186023965FAC2397452C512CC0
:1055A00022965FAE4EAE2297C701B6010E945A62A4
:1055B000440C551C440C551C65965FAE4EAE659769
:1055C000F201E25EFD4F20813181428153810E94D0
:1055D000B9626B017C012296EEADFFAD2297EE0F12
:1055E000FF1FE05FFD4F60817181072E000C880B6B
:1055F000990B0E945A629B01AC01C701B6010E943F
:10560000B9622AE037ED43E25CE30E94B9626BAB1A
:105610007CAB8DAB9EAB20E030E0A9010E947B68A3
:1056200018165CF420E030E040E05FE36BA97CA951
:105630008DA99EA90E9455660AC02BA93CA94DA917
:105640005EA960E070E080E09FE30E9454660E94E3
:1056500099676BAF7CAF8DAF9EAF8091AE0C8F5FC3
:105660008F70A7968FAFA797E82E880FFF088091BD
:10567000AF0C90E08E159F0519F40E94221EF7CF03
:10568000E091AE0C2E2E312C3AA629A62CE4E29FF6
:10569000F0011124EA59F84F108213A3D501C40177
:1056A000B7FE07C088279927DC0188199909AA093C
:1056B000BB0983839483A583B6838CE429A43AA48D
:1056C000829DF001839DF00D1124EA59F84F8BA5BE
:1056D0009CA5ADA5BEA5B7FF07C0B095A0959095B8
:1056E00081959F4FAF4FBF4F87839087A187B28728
:1056F0008CE449A45AA4849DF001859DF00D1124E9
:10570000EA59F84F8FA598A9A9A9BAA9B7FF07C068
:10571000B095A095909581959F4FAF4FBF4F8387D0
:105720009487A587B6878CE429A43AA4829DF001CA
:10573000839DF00D1124EA59F84F2BAC3CAC4DACD5
:105740005EAC2786308A418A528A03811481258182
:105750003681478150856185728540175107620700
:10576000730714F4B901A8018CE449A45AA4849DD8
:10577000F001859DF00D1124EA59F84F8385948539
:10578000A585B685CBACDCACEDACFEACC816D906B5
:10579000EA06FB0614F46C017D01C416D506E60684
:1057A000F7061CF4DB01CA010BC02BAC3CAC4DACC2
:1057B0005EAC281639064A065B0614F0D201C10118
:1057C0004CE449A45AA4449DF001459DF00D1124D8
:1057D000EA59F84F838B948BA58BB68B0697A1055E
:1057E000B10510F40C94183623965FAC23975182C0
:1057F0002FA82282012B022B032B09F05F988CE447
:1058000049A45AA4849DF001859DF00D1124EA5904
:10581000F84F87819085A185B285892B8A2B8B2BA8
:1058200009F08A988CE429A43AA4829DF001839D12
:10583000F00D1124EA59F84F83859485A585B68526
:10584000892B8A2B8B2B41F09FB7F894809108010C
:105850008E7F809308019FBF2BAC3CAC4DAC5EACFF
:1058600023282428252811F40C940336129820901C
:10587000ED030091EE033090EF031091F003222D21
:10588000302F432D512F6FAD24967FAD2497C30148
:105890000E94546287FD06C02FAC24960FAD24975A
:1058A000362C172DC501B4010E945A6220918B0538
:1058B00030918C0540918D0550918E050E94B96202
:1058C0002B013C01698B7A8B8B8B9C8B6BA57CA508
:1058D0008DA59EA50E945A6220918F05309190055A
:1058E00040919105509192050E94B9624B015C0173
:1058F0006D8B7E8B8F8B988F6FA578A989A99AA9BC
:105900000E945A622091930530919405409195052B
:10591000509196050E94B9626B017C01698F7A8F64
:105920008B8F9C8F20919705309198054091990518
:1059300050919A056BA97CA98DA99EA90E94B96274
:105940006D8F7E8F8F8F98A32CE449A55AA5249F35
:10595000F001259FF00D1124EA59F84F238134817D
:10596000458156812BA73CA74DA75EA72630310560
:1059700041055105D4F42781308541855285263073
:105980003105410551058CF42385348545855685BF
:10599000263031054105510544F4DC01CB01BF77C8
:1059A00080AB91ABA2ABB3AB32C0A3019201C301F8
:1059B000B2010E94B9622B013C01A5019401C5010D
:1059C000B4010E94B9629B01AC01C301B2010E9403
:1059D00055664B015C01A7019601C701B6010E9403
:1059E000B9629B01AC01C501B4010E9455660E94D9
:1059F000C0682CE449A45AA4249DF001259DF00D13
:105A00001124EA59F84F60AB71AB82AB93AB8CE4D5
:105A100049A45AA4849DF001859DF00D1124EA59F2
:105A2000F84F20A931A942A953A9A1962CAF3DAFA7
:105A30004EAF5FAFA19760E070E080E89FE30E9407
:105A400031672B966CAF7DAF8EAF9FAF2B979B01CD
:105A5000AC01622D702F832D912F0E94B9626B01D2
:105A60007C018091AE0C9091AF0C891B8F702496B5
:105A70008FAF2497A701960160E074E284E799E470
:105A80000E9431670E9486684B015C0124968FADAD
:105A9000249782508630C0F58091E5039091E6030B
:105AA000A091E703B091E80388169906AA06BB0601
:105AB00058F588199909AA09BB09BC01CD01660FDF
:105AC000771F881F991F24962FAC2497022D10E072
:105AD00020E030E0A90198010E941966CA01B901CD
